:100000000C9462000C948A000C948A000C948A0070
:100010000C948A000C948A000C948A000C948A0038
:100020000C948A000C948A000C948A000C948A0028
:100030000C948A000C9414040C948A000C948A008A
:100040000C9472030C948A000C94E2030C94BC038D
:100050000C948A000C948A000C948A000C948A00F8
:100060000C948A000C948A0005A84CCDB2D44EB9E9
:100070003836A9020C50B9918688083CA6AAAA2A4B
:10008000BE000000803F00000000250028002B007B
:1000900000000000240027002A00040404040404D3
:1000A0000404020202020202030303030303010227
:1000B00004081020408001020408102001020408F6
:1000C0001020800511241FBECFEFD8E0DEBFCDBFCA
:1000D00011E0A0E0B1E0E0EFF0E102C005900D9288
:1000E000AA31B107D9F724E0AAE1B1E001C01D921D
:1000F000A93EB207E1F710E0C2E6D0E004C02197C4
:10010000FE010E947008C136D107C9F70E943B0466
:100110000C9476080C940000CF93DF9390E0FC01E0
:10012000E255FF4F249186569F4FFC01849188230E
:10013000D1F090E0880F991FFC01E057FF4FA59187
:10014000B491FC01EA57FF4FC591D49161110EC0E3
:100150009FB7F8948C91E22FE0958E238C932881A1
:10016000E223E8839FBFDF91CF9108958FB7F89482
:10017000EC91E22BEC938FBFF6CF8E3008F08E50CF
:100180008770806480937C0080917A008064809383
:100190007A0080917A0086FDFCCF80917800909162
:1001A000790008953FB7F8948091480490914904EC
:1001B000A0914A04B0914B0426B5A89B05C02F3FDF
:1001C00019F00196A11DB11D3FBFBA2FA92F982F7D
:1001D0008827BC01CD01620F711D811D911D42E078
:1001E000660F771F881F991F4A95D1F70895CF9200
:1001F000DF92EF92FF92CF93DF9380911C01909159
:100200001D01879784F080911A0190911B01892B21
:1002100051F481E090E090931B0180931A011092B9
:100220001D0110921C0180911C0190911D01879766
:1002300074F080911A0190911B01019741F4109282
:100240001B0110921A0110921D0110921C01809145
:100250001C0190911D01019690931D0180931C013A
:1002600020911A0130911B01232B09F04CC0880FFB
:10027000991F880F991FEC01CF5DDE4F609102013D
:1002800070910301072E000C880B990B0E945006F9
:10029000288139814A815B810E94DC060E941F0609
:1002A0006B0161E089E00E948C0080918000806891
:1002B00080938000A0911E01B0911F0196010E94C1
:1002C00061084AE096958795779567954A95D1F7A5
:1002D00070938900609388008091200180618093F1
:1002E000810061E08AE00E948C0080918000806241
:1002F0008093800010928B0010928A0080912001E0
:1003000080618093810080911A0190911B01019777
:1003100009F04FC0C0911C01D0911D01CC0FDD1F11
:10032000CC0FDD1FCF5DDE4F6091020170910301A4
:10033000072E000C880B990B0E94500628813981EA
:100340004A815B810E94DC060E941F066B0161E00E
:100350008AE00E948C0080918000806280938000FF
:10036000A0911E01B0911F0196010E9461082AE030
:1003700096958795779567952A95D1F770938B0019
:1003800060938A008091200180618093810061E008
:1003900089E00E948C0080918000806880938000BA
:1003A00010928900109288008091200180618093D2
:1003B0008100DF91CF91FF90EF90DF90CF90089573
:1003C000AF92BF92CF92DF92EF92FF920F931F9363
:1003D000CF93DF936C017B018B01040F151FEB01A1
:1003E0005E01AE18BF08C017D10759F06991D60158
:1003F000ED91FC910190F081E02DC6010995892BCA
:1004000079F7C501DF91CF911F910F91FF90EF9088
:10041000DF90CF90BF90AF900895FC01538D448D35
:10042000252F30E0842F90E0821B930B541710F09F
:10043000CF96089501970895FC01918D828D9817AC
:1004400061F0A28DAE0FBF2FB11D5D968C91928D84
:100450009F5F9F73928F90E008958FEF9FEF0895B5
:10046000FC01918D828D981731F0828DE80FF11D7E
:10047000858D90E008958FEF9FEF0895FC01918D99
:10048000228D892F90E0805C9F4F821B91098F7392
:10049000992708958CE494E00E943E0221E0892B84
:1004A00009F420E0822F089580E090E0892B29F064
:1004B0000E944A0281110C9400000895FC01A48D51
:1004C000A80FB92FB11DA35ABF4F2C91848D90E076
:1004D00001968F739927848FA689B7892C93A08959
:1004E000B1898C91837080648C93938D848D9813E3
:1004F00006C00288F389E02D80818F7D8083089576
:10050000EF92FF920F931F93CF93DF93EC0181E063
:10051000888F9B8D8C8D98131AC0E889F98980810A
:1005200085FF15C09FB7F894EE89FF896083E8893D
:10053000F98980818370806480839FBF81E090E02F
:10054000DF91CF911F910F91FF90EF900895F62EBC
:100550000B8D10E00F5F1F4F0F731127E02E8C8D56
:100560008E110CC00FB607FCFACFE889F98980819B
:1005700085FFF5CFCE010E945E02F1CFEB8DEC0F2F
:10058000FD2FF11DE35AFF4FF0829FB7F8940B8FB8
:10059000EA89FB8980818062CFCFCF93DF93EC0122
:1005A000888D8823B9F0AA89BB89E889F9898C915B
:1005B00085FD03C0808186FD0DC00FB607FCF7CF17
:1005C0008C9185FFF2CF808185FFEDCFCE010E9417
:1005D0005E02E9CFDF91CF91089508958F929F92A7
:1005E000AF92BF920F931F93CF93DF93CDB7DEB738
:1005F000A1970FB6F894DEBF0FBECDBF19A242304F
:1006000008F44AE08E010F5D1F4F842E912CB12C0F
:10061000A12CA50194010E943F08E62FB901CA014F
:10062000EA3044F5E05DD801EE938D01232B242BB5
:10063000252B79F790E080E0109769F0FD0101909B
:100640000020E9F73197AF014A1B5B0BBD018CE439
:1006500094E00E94E001A1960FB6F894DEBF0FBEB1
:10066000CDBFDF91CF911F910F91BF90AF909F9021
:100670008F900895E95CD7CFCF92DF92EF92FF92EF
:10068000CF93DF936C01990FEE08FF08F7FE23C0AC
:100690006DE28CE494E00E948002EC0166277727EB
:1006A000CB016C197D098E099F094AE00E94EE0278
:1006B000C80FD91F42E050E066E171E08CE494E09D
:1006C0000E94E0018C0F9D1FDF91CF91FF90EF9072
:1006D000DF90CF9008954AE0C701B6010E94EE0274
:1006E000EC01E8CF1F920F920FB60F9211242F93B7
:1006F0003F938F939F93AF93BF93809144049091C6
:100700004504A0914604B09147043091430423E08E
:10071000230F2D3758F50196A11DB11D20934304D9
:100720008093440490934504A0934604B0934704F7
:100730008091480490914904A0914A04B0914B04DF
:100740000196A11DB11D8093480490934904A09384
:100750004A04B0934B04BF91AF919F918F913F9109
:100760002F910F900FBE0F901F90189526E8230F22
:100770000296A11DB11DD2CF1F920F920FB60F92FC
:1007800011242F933F934F935F936F937F938F9396
:100790009F93AF93BF93EF93FF938CE494E00E94F9
:1007A0005E02FF91EF91BF91AF919F918F917F91E9
:1007B0006F915F914F913F912F910F900FBE0F90CE
:1007C0001F9018951F920F920FB60F9211242F931E
:1007D0008F939F93EF93FF93E0915C04F0915D04FE
:1007E0008081E0916204F091630482FD1BC09081DE
:1007F000809165048F5F8F7320916604821741F0AA
:10080000E0916504F0E0E45BFB4F958F8093650415
:10081000FF91EF919F918F912F910F900FBE0F90AD
:100820001F9018958081F4CF1F920F920FB60F92F0
:1008300011242F933F934F935F936F937F938F93E5
:100840009F93AF93BF93EF93FF93E0910001F091DB
:1008500001010995FF91EF91BF91AF919F918F9108
:100860007F916F915F914F913F912F910F900FBEAC
:100870000F901F901895789484B5826084BD84B5DC
:10088000816084BD85B5826085BD85B5816085BD8B
:1008900080916E00816080936E0010928100809143
:1008A00081008260809381008091810081608093CB
:1008B0008100809180008160809380008091B100F0
:1008C00084608093B1008091B00081608093B0001B
:1008D00080917A00846080937A0080917A008260AF
:1008E00080937A0080917A00816080937A00809171
:1008F0007A00806880937A001092C100E0915C04D5
:10090000F0915D0482E08083E0915804F0915904F5
:100910001082E0915A04F0915B048FEC8083109276
:100920006404E0916004F091610486E08083E091CA
:100930005E04F0915F04808180618083E0915E04B9
:10094000F0915F04808188608083E0915E04F09183
:100950005F04808180688083E0915E04F0915F0491
:1009600080818F7D808301E211E0D0E0C0E0BE0194
:100970000D2E000C880B990B0E94500626E334E9DB
:1009800047E950E40E94DC0623EC35EF48E450E4EC
:100990000E94DC0620E030E044E353E40E94AD0511
:1009A0000E944907F80161937193819391938F019C
:1009B000CE010E943C032196C632D105C1F60E94A9
:1009C000D2004B015C0184E6C82ED12CE12CF12C25
:1009D0000E94D200681979098A099B09683E734010
:1009E00081059105A8F3F1E0CF1AD108E108F108DB
:1009F00028EE820E23E0921EA11CB11CC114D1046A
:100A0000E104F10429F760E08EE00E948C0010926E
:100A100003011092020180E1809381001092800016
:100A200081E08093200128EC36E030931F01209371
:100A30001E01309387002093860091E190938100FE
:100A400027EF30E0309301012093000180936F0085
:100A5000C0E0D0E08EE00E94BD00909342048093FD
:100A60004104809141049091420481159240E4F444
:100A70008091020190910301833E23E0920771F47B
:100A80008EE00E94BD0090934204809341048091C7
:100A90000201909103010E943C03E3CF01969093E1
:100AA000030180930201ECCF8091410490914204B4
:100AB00081309240D4F0809102019091030100971F
:100AC00071F48EE00E94BD00909342048093410433
:100AD00080910201909103010E943C03E5CF0197B0
:100AE0009093030180930201ECCF209709F4B2CFD9
:100AF0000E944A02882309F4ADCF0E940000AACFC9
:100B0000ECE4F4E01382128288EE93E0A0E0B0E01F
:100B100084839583A683B78388E091E09183808363
:100B200085EC90E09587848784EC90E097878687B2
:100B300080EC90E0918B808B81EC90E0938B828BAA
:100B400082EC90E0958B848B86EC90E0978B868B83
:100B5000118E128E138E148E08950E94C1050C946E
:100B6000A2060E949B0658F00E94940640F029F4C9
:100B70005F3F29F00C948B0651110C94D6060C940F
:100B800091060E94B30668F39923B1F3552391F3BC
:100B9000951B550BBB27AA2762177307840738F0EC
:100BA0009F5F5F4F220F331F441FAA1FA9F335D049
:100BB0000E2E3AF0E0E832D091505040E695001CFD
:100BC000CAF72BD0FE2F29D0660F771F881FBB1FB7
:100BD000261737074807AB07B0E809F0BB0B802D95
:100BE000BF01FF2793585F4F3AF09E3F510578F0C1
:100BF0000C948B060C94D6065F3FE4F3983ED4F336
:100C0000869577956795B795F7959F5FC9F7880F94
:100C1000911D9695879597F90895E1E0660F771FE6
:100C2000881FBB1F621773078407BA0720F0621B77
:100C3000730B840BBA0BEE1F88F7E09508950E94A2
:100C4000BB0688F09F5798F0B92F9927B751B0F09D
:100C5000E1F0660F771F881F991F1AF0BA95C9F740
:100C600014C0B13091F00E94D506B1E008950C9403
:100C7000D506672F782F8827B85F39F0B93FCCF3B6
:100C8000869577956795B395D9F73EF490958095BD
:100C9000709561957F4F8F4F9F4F0895E89409C0DD
:100CA00097FB3EF490958095709561957F4F8F4F9F
:100CB0009F4F9923A9F0F92F96E9BB279395F695B5
:100CC000879577956795B795F111F8CFFAF4BB0F33
:100CD00011F460FF1BC06F5F7F4F8F4F9F4F16C097
:100CE000882311F096E911C0772321F09EE8872F21
:100CF000762F05C0662371F096E8862F70E060E0DD
:100D00002AF09A95660F771F881FDAF7880F969555
:100D1000879597F9089597F99F6780E870E060E0FC
:100D200008959FEF80EC089500240A941616170684
:100D300018060906089500240A94121613061406CC
:100D400005060895092E0394000C11F4882352F02F
:100D5000BB0F40F4BF2B11F460FF04C06F5F7F4FE7
:100D60008F4F9F4F089557FD9058440F551F59F0CE
:100D70005F3F71F04795880F97FB991F61F09F3F88
:100D800079F087950895121613061406551FF2CFB1
:100D90004695F1DF08C0161617061806991FF1CF01
:100DA00086957105610508940895E894BB27662728
:100DB0007727CB0197F908950E94EF060C94A206BD
:100DC0000E94940638F00E949B0620F0952311F0B3
:100DD0000C948B060C94910611240C94D6060E9458
:100DE000B30670F3959FC1F3950F50E0551F629FB6
:100DF000F001729FBB27F00DB11D639FAA27F00D74
:100E0000B11DAA1F649F6627B00DA11D661F829F9A
:100E10002227B00DA11D621F739FB00DA11D621F7F
:100E2000839FA00D611D221F749F3327A00D611D9C
:100E3000231F849F600D211D822F762F6A2F11247E
:100E40009F5750409AF0F1F088234AF0EE0FFF1FB1
:100E5000BB1F661F771F881F91505040A9F79E3F08
:100E6000510580F00C948B060C94D6065F3FE4F39A
:100E7000983ED4F3869577956795B795F795E7955E
:100E80009F5FC1F7FE2B880F911D9695879597F967
:100E900008959F930E9453070F9007FCEE5F0C94F8
:100EA0007C070C9491060E94BB06D8F3E894E0E01E
:100EB000BB279F57F0F02AED3FE049EC06C0EE0F4C
:100EC000BB0F661F771F881F28F0B23A62077307AF
:100ED000840728F0B25A620B730B840BE3959A9542
:100EE00072F7803830F49A95BB0F661F771F881F02
:100EF000D2F790480C94F807EF93E0FF07C0A2EAFE
:100F00002AED3FE049EC5FEB0E94A1070E94A20698
:100F10000F90039401FC9058E8E6F0E00C9404086C
:100F20000E94940638F00E949B0620F039F49F3FFF
:100F300019F426F40C9491060EF4E095E7FB0C945A
:100F40008B06E92F0E94B30658F3BA17620773079E
:100F50008407950720F079F4A6F50C94D5060EF4D5
:100F6000E0950B2EBA2FA02D0B01B90190010C01B9
:100F7000CA01A0011124FF27591B99F0593F50F4D1
:100F8000503E68F11A16F040A22F232F342F442729
:100F9000585FF3CF469537952795A795F040539521
:100FA000C9F77EF41F16BA0B620B730B840BBAF0F1
:100FB0009150A1F0FF0FBB1F661F771F881FC2F75C
:100FC0000EC0BA0F621F731F841F48F48795779570
:100FD0006795B795F7959E3F08F0B0CF9395880F2A
:100FE00008F09927EE0F9795879508959F3F31F068
:100FF000915020F4879577956795B795880F911D47
:101000009695879597F908959F938F937F936F9304
:10101000FF93EF939B01AC010E94DC06EF91FF91DF
:101020000E9418082F913F914F915F910C94DC061C
:10103000DF93CF931F930F93FF92EF92DF927B0189
:101040008C01689406C0DA2EEF010E94EF06FE01C3
:10105000E894A5912591359145915591A6F3EF011D
:101060000E94A107FE019701A801DA9469F7DF90B9
:10107000EF90FF900F911F91CF91DF910895A1E222
:101080001A2EAA1BBB1BFD010DC0AA1FBB1FEE1F02
:10109000FF1FA217B307E407F50720F0A21BB30B4D
:1010A000E40BF50B661F771F881F991F1A9469F7C9
:1010B00060957095809590959B01AC01BD01CF0125
:1010C0000895A29FB001B39FC001A39F700D811D21
:1010D0001124911DB29F700D811D1124911D089541
:1010E000EE0FFF1F0590F491E02D0994F894FFCFC7
:1010F000ED020100000000008002E0010D02CD02BF
:0A1100003E021C0230020D0A00003E
:00000001FF
